{
  "address": "0x99E6ffdfdb8d699D9c13c13E28e0EbE6434B86a5",
  "abi": [
    {
      "inputs": [],
      "stateMutability": "nonpayable",
      "type": "constructor"
    },
    {
      "anonymous": false,
      "inputs": [
        {
          "indexed": true,
          "internalType": "address",
          "name": "nft",
          "type": "address"
        },
        {
          "indexed": false,
          "internalType": "uint256",
          "name": "nftCount",
          "type": "uint256"
        }
      ],
      "name": "NFTDeployed",
      "type": "event"
    },
    {
      "anonymous": false,
      "inputs": [
        {
          "indexed": true,
          "internalType": "address",
          "name": "previousOwner",
          "type": "address"
        },
        {
          "indexed": true,
          "internalType": "address",
          "name": "newOwner",
          "type": "address"
        }
      ],
      "name": "OwnershipTransferred",
      "type": "event"
    },
    {
      "inputs": [
        {
          "internalType": "string",
          "name": "name",
          "type": "string"
        },
        {
          "internalType": "string",
          "name": "symbol",
          "type": "string"
        },
        {
          "internalType": "string",
          "name": "baseURI",
          "type": "string"
        },
        {
          "internalType": "address",
          "name": "admin",
          "type": "address"
        },
        {
          "internalType": "address",
          "name": "saleFeeRecipient",
          "type": "address"
        },
        {
          "internalType": "uint256",
          "name": "maxTokenAmount",
          "type": "uint256"
        },
        {
          "internalType": "uint256",
          "name": "salesFeeBPS",
          "type": "uint256"
        }
      ],
      "name": "deployNFT",
      "outputs": [
        {
          "internalType": "address",
          "name": "nft",
          "type": "address"
        }
      ],
      "stateMutability": "nonpayable",
      "type": "function"
    },
    {
      "inputs": [
        {
          "internalType": "uint256",
          "name": "",
          "type": "uint256"
        }
      ],
      "name": "nfts",
      "outputs": [
        {
          "internalType": "address",
          "name": "",
          "type": "address"
        }
      ],
      "stateMutability": "view",
      "type": "function"
    },
    {
      "inputs": [],
      "name": "owner",
      "outputs": [
        {
          "internalType": "address",
          "name": "",
          "type": "address"
        }
      ],
      "stateMutability": "view",
      "type": "function"
    },
    {
      "inputs": [],
      "name": "renounceOwnership",
      "outputs": [],
      "stateMutability": "nonpayable",
      "type": "function"
    },
    {
      "inputs": [
        {
          "internalType": "address",
          "name": "newOwner",
          "type": "address"
        }
      ],
      "name": "transferOwnership",
      "outputs": [],
      "stateMutability": "nonpayable",
      "type": "function"
    }
  ],
  "transactionHash": "0x5adc486d0fd57b09ca8ab8c774d1199bd8f925bba8651a7ebdea78aea1af46ef",
  "args": [],
  "solcInputHash": "3b090d3af5fd65e398b6f8645708c2f6",
  "bytecode": "0x608060405234801561001057600080fd5b5061001a3361001f565b61006f565b600080546001600160a01b038381166001600160a01b0319831681178455604051919092169283917f8be0079c531659141344cd1fd0a4f28419497f9722a3daafe3b4186f6b6457e09190a35050565b6125798061007e6000396000f3fe60806040523480156200001157600080fd5b50600436106200005e5760003560e01c8063265aa6211462000063578063401f48721462000096578063715018a614620000ad5780638da5cb5b14620000b9578063f2fde38b14620000cb575b600080fd5b6200007a62000074366004620004eb565b620000e2565b6040516001600160a01b03909116815260200160405180910390f35b6200007a620000a736600462000424565b6200010d565b620000b762000219565b005b6000546001600160a01b03166200007a565b620000b7620000dc36600462000400565b62000254565b60018181548110620000f357600080fd5b6000918252602090912001546001600160a01b0316905081565b600080546001600160a01b03163314620001445760405162461bcd60e51b81526004016200013b90620005c1565b60405180910390fd5b87878787878787604051620001599062000346565b6200016b979695949392919062000552565b604051809103906000f08015801562000188573d6000803e3d6000fd5b5060018054808201825560008290527fb10e2d527612073b26eecdfd717e6a320cf44b4afac2b0732d9fcbe2b7fa0cf60180546001600160a01b0319166001600160a01b0384169081179091559054604051908152919250907f941fc44af763baa5830fcfc2e9cfa66d9af75d0240b66c8fdccaf3b3d1c032779060200160405180910390a2979650505050505050565b6000546001600160a01b03163314620002465760405162461bcd60e51b81526004016200013b90620005c1565b620002526000620002f6565b565b6000546001600160a01b03163314620002815760405162461bcd60e51b81526004016200013b90620005c1565b6001600160a01b038116620002e85760405162461bcd60e51b815260206004820152602660248201527f4f776e61626c653a206e6577206f776e657220697320746865207a65726f206160448201526564647265737360d01b60648201526084016200013b565b620002f381620002f6565b50565b600080546001600160a01b038381166001600160a01b0319831681178455604051919092169283917f8be0079c531659141344cd1fd0a4f28419497f9722a3daafe3b4186f6b6457e09190a35050565b611f37806200060d83390190565b80356001600160a01b03811681146200036c57600080fd5b919050565b600082601f83011262000382578081fd5b813567ffffffffffffffff80821115620003a057620003a0620005f6565b604051601f8301601f19908116603f01168101908282118183101715620003cb57620003cb620005f6565b81604052838152866020858801011115620003e4578485fd5b8360208701602083013792830160200193909352509392505050565b60006020828403121562000412578081fd5b6200041d8262000354565b9392505050565b600080600080600080600060e0888a0312156200043f578283fd5b873567ffffffffffffffff8082111562000457578485fd5b620004658b838c0162000371565b985060208a01359150808211156200047b578485fd5b620004898b838c0162000371565b975060408a01359150808211156200049f578485fd5b50620004ae8a828b0162000371565b955050620004bf6060890162000354565b9350620004cf6080890162000354565b925060a0880135915060c0880135905092959891949750929550565b600060208284031215620004fd578081fd5b5035919050565b60008151808452815b818110156200052b576020818501810151868301820152016200050d565b818111156200053d5782602083870101525b50601f01601f19169290920160200192915050565b600060e082526200056760e083018a62000504565b82810360208401526200057b818a62000504565b9050828103604084015262000591818962000504565b6001600160a01b0397881660608501529590961660808301525060a081019290925260c090910152949350505050565b6020808252818101527f4f776e61626c653a2063616c6c6572206973206e6f7420746865206f776e6572604082015260600190565b634e487b7160e01b600052604160045260246000fdfe60806040523480156200001157600080fd5b5060405162001f3738038062001f378339810160408190526200003491620003fc565b86866200004133620000dd565b62000053632dde656160e21b6200012d565b81516200006890600290602085019062000286565b5080516200007e90600390602084019062000286565b5050506200009284620001b560201b60201c565b8451620000a790600990602088019062000286565b50600a80546001600160a01b0319166001600160a01b039490941693909317909255600b91909155600c55506200051592505050565b600080546001600160a01b038381166001600160a01b0319831681178455604051919092169283917f8be0079c531659141344cd1fd0a4f28419497f9722a3daafe3b4186f6b6457e09190a35050565b6001600160e01b031980821614156200018d5760405162461bcd60e51b815260206004820152601c60248201527f4552433136353a20696e76616c696420696e746572666163652069640000000060448201526064015b60405180910390fd5b6001600160e01b0319166000908152600160208190526040909120805460ff19169091179055565b6000546001600160a01b03163314620002115760405162461bcd60e51b815260206004820181905260248201527f4f776e61626c653a2063616c6c6572206973206e6f7420746865206f776e6572604482015260640162000184565b6001600160a01b038116620002785760405162461bcd60e51b815260206004820152602660248201527f4f776e61626c653a206e6577206f776e657220697320746865207a65726f206160448201526564647265737360d01b606482015260840162000184565b6200028381620000dd565b50565b8280546200029490620004c2565b90600052602060002090601f016020900481019282620002b8576000855562000303565b82601f10620002d357805160ff191683800117855562000303565b8280016001018555821562000303579182015b8281111562000303578251825591602001919060010190620002e6565b506200031192915062000315565b5090565b5b8082111562000311576000815560010162000316565b80516001600160a01b03811681146200034457600080fd5b919050565b600082601f8301126200035a578081fd5b81516001600160401b0380821115620003775762000377620004ff565b604051601f8301601f19908116603f01168101908282118183101715620003a257620003a2620004ff565b81604052838152602092508683858801011115620003be578485fd5b8491505b83821015620003e15785820183015181830184015290820190620003c2565b83821115620003f257848385830101525b9695505050505050565b600080600080600080600060e0888a03121562000417578283fd5b87516001600160401b03808211156200042e578485fd5b6200043c8b838c0162000349565b985060208a015191508082111562000452578485fd5b620004608b838c0162000349565b975060408a015191508082111562000476578485fd5b50620004858a828b0162000349565b95505062000496606089016200032c565b9350620004a6608089016200032c565b925060a0880151915060c0880151905092959891949750929550565b600181811c90821680620004d757607f821691505b60208210811415620004f957634e487b7160e01b600052602260045260246000fd5b50919050565b634e487b7160e01b600052604160045260246000fd5b611a1280620005256000396000f3fe608060405234801561001057600080fd5b50600436106101735760003560e01c80636c0360eb116100de578063b083120011610097578063c87b56dd11610071578063c87b56dd14610329578063e74b981b1461033c578063e985e9c51461034f578063f2fde38b1461038b57610173565b8063b0831200146102ed578063b88d4fde146102f6578063b9c4d9fb1461030957610173565b80636c0360eb1461029e57806370a08231146102a6578063715018a6146102b95780638da5cb5b146102c157806395d89b41146102d2578063a22cb465146102da57610173565b806323b872dd1161013057806323b872dd1461022c5780632ee926751461023f57806342842e0e146102525780634de9fb93146102655780636352211e146102785780636a6278421461028b57610173565b806301ffc9a71461017857806306fdde03146101a0578063081812fc146101b5578063095ea7b3146101e05780630ebd4c7f146101f557806317d54cb014610215575b600080fd5b61018b610186366004611637565b61039e565b60405190151581526020015b60405180910390f35b6101a86103b1565b60405161019791906117c0565b6101c86101c336600461166f565b610443565b6040516001600160a01b039091168152602001610197565b6101f36101ee36600461160e565b6104dd565b005b61020861020336600461166f565b6105f3565b6040516101979190611788565b61021e600b5481565b604051908152602001610197565b6101f361023a3660046114c4565b61064e565b6101f361024d36600461166f565b61067f565b6101f36102603660046114c4565b6106bd565b600a546101c8906001600160a01b031681565b6101c861028636600461166f565b6106d8565b61021e610299366004611478565b61074f565b6101a86107e8565b61021e6102b4366004611478565b610876565b6101f36108fd565b6000546001600160a01b03166101c8565b6101a8610933565b6101f36102e83660046115d4565b610942565b61021e61271081565b6101f36103043660046114ff565b610a14565b61031c61031736600461166f565b610a4c565b604051610197919061173b565b6101a861033736600461166f565b610abf565b6101f361034a366004611478565b610af0565b61018b61035d366004611492565b6001600160a01b03918216600090815260076020908152604080832093909416825291909152205460ff1690565b6101f3610399366004611478565b610b6e565b60006103a982610c09565b90505b919050565b6060600280546103c09061191a565b80601f01602080910402602001604051908101604052809291908181526020018280546103ec9061191a565b80156104395780601f1061040e57610100808354040283529160200191610439565b820191906000526020600020905b81548152906001019060200180831161041c57829003601f168201915b5050505050905090565b6000818152600460205260408120546001600160a01b03166104c15760405162461bcd60e51b815260206004820152602c60248201527f4552433732313a20617070726f76656420717565727920666f72206e6f6e657860448201526b34b9ba32b73a103a37b5b2b760a11b60648201526084015b60405180910390fd5b506000908152600660205260409020546001600160a01b031690565b60006104e8826106d8565b9050806001600160a01b0316836001600160a01b031614156105565760405162461bcd60e51b815260206004820152602160248201527f4552433732313a20617070726f76616c20746f2063757272656e74206f776e656044820152603960f91b60648201526084016104b8565b336001600160a01b03821614806105725750610572813361035d565b6105e45760405162461bcd60e51b815260206004820152603860248201527f4552433732313a20617070726f76652063616c6c6572206973206e6f74206f7760448201527f6e6572206e6f7220617070726f76656420666f7220616c6c000000000000000060648201526084016104b8565b6105ee8383610c49565b505050565b6040805160018082528183019092526060916000919060208083019080368337019050509050600b548160008151811061063d57634e487b7160e01b600052603260045260246000fd5b602090810291909101015292915050565b6106583382610cb7565b6106745760405162461bcd60e51b81526004016104b89061185a565b6105ee838383610dae565b6000546001600160a01b031633146106a95760405162461bcd60e51b81526004016104b890611825565b6127108111156106b857600080fd5b600b55565b6105ee83838360405180602001604052806000815250610a14565b6000818152600460205260408120546001600160a01b0316806103a95760405162461bcd60e51b815260206004820152602960248201527f4552433732313a206f776e657220717565727920666f72206e6f6e657869737460448201526832b73a103a37b5b2b760b91b60648201526084016104b8565b600080546001600160a01b0316331461077a5760405162461bcd60e51b81526004016104b890611825565b600c54600854106107c35760405162461bcd60e51b815260206004820152601360248201527213585e08139bcb8813919514c81b5a5b9d1959606a1b60448201526064016104b8565b6107d1600880546001019055565b60006107dc60085490565b90506103a98382610f4e565b600980546107f59061191a565b80601f01602080910402602001604051908101604052809291908181526020018280546108219061191a565b801561086e5780601f106108435761010080835404028352916020019161086e565b820191906000526020600020905b81548152906001019060200180831161085157829003601f168201915b505050505081565b60006001600160a01b0382166108e15760405162461bcd60e51b815260206004820152602a60248201527f4552433732313a2062616c616e636520717565727920666f7220746865207a65604482015269726f206164647265737360b01b60648201526084016104b8565b506001600160a01b031660009081526005602052604090205490565b6000546001600160a01b031633146109275760405162461bcd60e51b81526004016104b890611825565b6109316000611090565b565b6060600380546103c09061191a565b6001600160a01b03821633141561099b5760405162461bcd60e51b815260206004820152601960248201527f4552433732313a20617070726f766520746f2063616c6c65720000000000000060448201526064016104b8565b3360008181526007602090815260408083206001600160a01b0387168085529252909120805460ff1916841515179055906001600160a01b03167f17307eab39ab6107e8899845ad3d59bd9653f200f220920489ca2b5937696c3183604051610a08911515815260200190565b60405180910390a35050565b610a1e3383610cb7565b610a3a5760405162461bcd60e51b81526004016104b89061185a565b610a46848484846110e0565b50505050565b60408051600180825281830190925260609160009190602080830190803683375050600a5482519293506001600160a01b031691839150600090610aa057634e487b7160e01b600052603260045260246000fd5b6001600160a01b03909216602092830291909101909101529050919050565b6060610aca82611113565b604051602001610ada91906116e2565b6040516020818303038152906040529050919050565b6000546001600160a01b03163314610b1a5760405162461bcd60e51b81526004016104b890611825565b600a80546001600160a01b0319166001600160a01b0383169081179091556040519081527f01e687e26c4cfc5bd8d8e5b4fd39d3dc526d2a95e5d2225252fe498e172257239060200160405180910390a150565b6000546001600160a01b03163314610b985760405162461bcd60e51b81526004016104b890611825565b6001600160a01b038116610bfd5760405162461bcd60e51b815260206004820152602660248201527f4f776e61626c653a206e6577206f776e657220697320746865207a65726f206160448201526564647265737360d01b60648201526084016104b8565b610c0681611090565b50565b60006001600160e01b031982166380ac58cd60e01b1480610c3a57506001600160e01b03198216635b5e139f60e01b145b806103a957506103a9826111ee565b600081815260066020526040902080546001600160a01b0319166001600160a01b0384169081179091558190610c7e826106d8565b6001600160a01b03167f8c5be1e5ebec7d5bd14f71427d1e84f3dd0314c0f7b2291e5b200ac8c7c3b92560405160405180910390a45050565b6000818152600460205260408120546001600160a01b0316610d305760405162461bcd60e51b815260206004820152602c60248201527f4552433732313a206f70657261746f7220717565727920666f72206e6f6e657860448201526b34b9ba32b73a103a37b5b2b760a11b60648201526084016104b8565b6000610d3b836106d8565b9050806001600160a01b0316846001600160a01b03161480610d765750836001600160a01b0316610d6b84610443565b6001600160a01b0316145b80610da657506001600160a01b0380821660009081526007602090815260408083209388168352929052205460ff165b949350505050565b826001600160a01b0316610dc1826106d8565b6001600160a01b031614610e295760405162461bcd60e51b815260206004820152602960248201527f4552433732313a207472616e73666572206f6620746f6b656e2074686174206960448201526839903737ba1037bbb760b91b60648201526084016104b8565b6001600160a01b038216610e8b5760405162461bcd60e51b8152602060048201526024808201527f4552433732313a207472616e7366657220746f20746865207a65726f206164646044820152637265737360e01b60648201526084016104b8565b610e96600082610c49565b6001600160a01b0383166000908152600560205260408120805460019290610ebf9084906118d7565b90915550506001600160a01b0382166000908152600560205260408120805460019290610eed9084906118ab565b909155505060008181526004602052604080822080546001600160a01b0319166001600160a01b0386811691821790925591518493918716917fddf252ad1be2c89b69c2b068fc378daa952ba7f163c4a11628f55a4df523b3ef91a4505050565b6001600160a01b038216610fa45760405162461bcd60e51b815260206004820181905260248201527f4552433732313a206d696e7420746f20746865207a65726f206164647265737360448201526064016104b8565b6000818152600460205260409020546001600160a01b0316156110095760405162461bcd60e51b815260206004820152601c60248201527f4552433732313a20746f6b656e20616c7265616479206d696e7465640000000060448201526064016104b8565b6001600160a01b03821660009081526005602052604081208054600192906110329084906118ab565b909155505060008181526004602052604080822080546001600160a01b0319166001600160a01b03861690811790915590518392907fddf252ad1be2c89b69c2b068fc378daa952ba7f163c4a11628f55a4df523b3ef908290a45050565b600080546001600160a01b038381166001600160a01b0319831681178455604051919092169283917f8be0079c531659141344cd1fd0a4f28419497f9722a3daafe3b4186f6b6457e09190a35050565b6110eb848484610dae565b6110f78484848461122a565b610a465760405162461bcd60e51b81526004016104b8906117d3565b6000818152600460205260409020546060906001600160a01b03166111925760405162461bcd60e51b815260206004820152602f60248201527f4552433732314d657461646174613a2055524920717565727920666f72206e6f60448201526e3732bc34b9ba32b73a103a37b5b2b760891b60648201526084016104b8565b600061119c611337565b905060008151116111bc57604051806020016040528060008152506111e7565b806111c684611346565b6040516020016111d79291906116b3565b6040516020818303038152906040525b9392505050565b60006301ffc9a760e01b6001600160e01b0319831614806103a95750506001600160e01b03191660009081526001602052604090205460ff1690565b60006001600160a01b0384163b1561132c57604051630a85bd0160e11b81526001600160a01b0385169063150b7a029061126e9033908990889088906004016116fe565b602060405180830381600087803b15801561128857600080fd5b505af19250505080156112b8575060408051601f3d908101601f191682019092526112b591810190611653565b60015b611312573d8080156112e6576040519150601f19603f3d011682016040523d82523d6000602084013e6112eb565b606091505b50805161130a5760405162461bcd60e51b81526004016104b8906117d3565b805181602001fd5b6001600160e01b031916630a85bd0160e11b149050610da6565b506001949350505050565b6060600980546103c09061191a565b60608161136b57506040805180820190915260018152600360fc1b60208201526103ac565b8160005b8115611395578061137f81611955565b915061138e9050600a836118c3565b915061136f565b60008167ffffffffffffffff8111156113be57634e487b7160e01b600052604160045260246000fd5b6040519080825280601f01601f1916602001820160405280156113e8576020820181803683370190505b5090505b8415610da6576113fd6001836118d7565b915061140a600a86611970565b6114159060306118ab565b60f81b81838151811061143857634e487b7160e01b600052603260045260246000fd5b60200101906001600160f81b031916908160001a90535061145a600a866118c3565b94506113ec565b80356001600160a01b03811681146103ac57600080fd5b600060208284031215611489578081fd5b6111e782611461565b600080604083850312156114a4578081fd5b6114ad83611461565b91506114bb60208401611461565b90509250929050565b6000806000606084860312156114d8578081fd5b6114e184611461565b92506114ef60208501611461565b9150604084013590509250925092565b60008060008060808587031215611514578081fd5b61151d85611461565b935061152b60208601611461565b925060408501359150606085013567ffffffffffffffff8082111561154e578283fd5b818701915087601f830112611561578283fd5b813581811115611573576115736119b0565b604051601f8201601f19908116603f0116810190838211818310171561159b5761159b6119b0565b816040528281528a60208487010111156115b3578586fd5b82602086016020830137918201602001949094529598949750929550505050565b600080604083850312156115e6578182fd5b6115ef83611461565b915060208301358015158114611603578182fd5b809150509250929050565b60008060408385031215611620578182fd5b61162983611461565b946020939093013593505050565b600060208284031215611648578081fd5b81356111e7816119c6565b600060208284031215611664578081fd5b81516111e7816119c6565b600060208284031215611680578081fd5b5035919050565b6000815180845261169f8160208601602086016118ee565b601f01601f19169290920160200192915050565b600083516116c58184602088016118ee565b8351908301906116d98183602088016118ee565b01949350505050565b600082516116f48184602087016118ee565b9190910192915050565b6001600160a01b038581168252841660208201526040810183905260806060820181905260009061173190830184611687565b9695505050505050565b6020808252825182820181905260009190848201906040850190845b8181101561177c5783516001600160a01b031683529284019291840191600101611757565b50909695505050505050565b6020808252825182820181905260009190848201906040850190845b8181101561177c578351835292840192918401916001016117a4565b6000602082526111e76020830184611687565b60208082526032908201527f4552433732313a207472616e7366657220746f206e6f6e20455243373231526560408201527131b2b4bb32b91034b6b83632b6b2b73a32b960711b606082015260800190565b6020808252818101527f4f776e61626c653a2063616c6c6572206973206e6f7420746865206f776e6572604082015260600190565b60208082526031908201527f4552433732313a207472616e736665722063616c6c6572206973206e6f74206f6040820152701ddb995c881b9bdc88185c1c1c9bdd9959607a1b606082015260800190565b600082198211156118be576118be611984565b500190565b6000826118d2576118d261199a565b500490565b6000828210156118e9576118e9611984565b500390565b60005b838110156119095781810151838201526020016118f1565b83811115610a465750506000910152565b600181811c9082168061192e57607f821691505b6020821081141561194f57634e487b7160e01b600052602260045260246000fd5b50919050565b600060001982141561196957611969611984565b5060010190565b60008261197f5761197f61199a565b500690565b634e487b7160e01b600052601160045260246000fd5b634e487b7160e01b600052601260045260246000fd5b634e487b7160e01b600052604160045260246000fd5b6001600160e01b031981168114610c0657600080fdfea264697066735822122044b48c2d39efd47aa48be68cc498c7b104f67e9eccea3cc38748dbce482e1d9464736f6c63430008030033a2646970667358221220ff243f885ca2a0b7cbcb99b91df39249522e6f79fba7d64586681d91c92a1f3264736f6c63430008030033",
  "devdoc": {
    "kind": "dev",
    "methods": {
      "owner()": {
        "details": "Returns the address of the current owner."
      },
      "renounceOwnership()": {
        "details": "Leaves the contract without owner. It will not be possible to call `onlyOwner` functions anymore. Can only be called by the current owner. NOTE: Renouncing ownership will leave the contract without an owner, thereby removing any functionality that is only available to the owner."
      },
      "transferOwnership(address)": {
        "details": "Transfers ownership of the contract to a new account (`newOwner`). Can only be called by the current owner."
      }
    },
    "version": 1
  },
  "userdoc": {
    "kind": "user",
    "methods": {},
    "version": 1
  },
  "storageLayout": {
    "storage": [
      {
        "astId": 7,
        "contract": "contracts/NFTFactory.sol:NFTFactory",
        "label": "_owner",
        "offset": 0,
        "slot": "0",
        "type": "t_address"
      },
      {
        "astId": 2032,
        "contract": "contracts/NFTFactory.sol:NFTFactory",
        "label": "nfts",
        "offset": 0,
        "slot": "1",
        "type": "t_array(t_address)dyn_storage"
      }
    ],
    "types": {
      "t_address": {
        "encoding": "inplace",
        "label": "address",
        "numberOfBytes": "20"
      },
      "t_array(t_address)dyn_storage": {
        "base": "t_address",
        "encoding": "dynamic_array",
        "label": "address[]",
        "numberOfBytes": "32"
      }
    }
  }
}